:100000006F003029000000003201000036010000BE
:1000100000000000000000000000000000000000E0
:1000200000000000000000000000000000000000D0
:100030003C07000000000000620A00000000000011
:10004000640A0000660A0000680A00006A0A0000EC
:100050006C0A00006E0A0000700A0000720A0000BC
:10006000740A0000760A0000780A00007A0A00008C
:100070007C0A00007E0A00006006000022070000E3
:10008000840A0000860A0000880A00008A0A00002C
:100090008C0A00008E0A0000900A00000000000098
:1000A000511126C022C206C4828282441244A24058
:1000B00031018280634E050263C305042E86AA8542
:1000C0007D5515C285466378B6006356C0000606A6
:1000D0008606E36CB6FE014563E4C500918D558D3F
:1000E00085820582F5FA82808682C93F2E858282CA
:1000F0003305A04063D70500B305B040C1B7B305D1
:10010000B0408682653F3305A0408282868263C705
:100110000500634905005D372E858282B305B04036
:10012000E35B05FE3305A040513F3305B0408282BA
:1001300000007300203001A0EFF29FF61301C1FD13
:100140002AC22EC04545854502C402C602C802CA5D
:1001500002CC02CE02D0EF00905385453705200037
:10016000EF00D0549146F1440D442C003715014066
:10017000748426C822C6EF00101A89462C00371551
:100180000140748426C822C6EF00F0188247124747
:1001900037540040FC86930700403ACAFC87370773
:1001A000FFBF91674C08130504403ACC2310F102BD
:1001B000EF003026130504408545EF00B0330546B7
:1001C0009305003013050440EF0050341301410241
:1001D000E9BDEFF2FFEC01113734014068846C8215
:1001E000130504C04C0032C002C802CA02CC02CEC1
:1001F000231301002315010023160100EF00D04E48
:100200000246C167938707060C08130504C03EC861
:10021000F083231C0100EF001052130504C0854534
:10022000EF00D059130504C08145EF00305C130581
:1002300004C08545EF00F0598545130504C0EF0063
:10024000705605619DB5EFF2BFE505655111854515
:100250001305058102C002C202C4EF005043C1472A
:100260007C80E1473EC48A858D47371501403EC2F8
:10027000EF00700A310115BD139745009387818601
:100280005DE54146B306A700BE962380060005053E
:10029000E31AC5FE3E97FD5674B313972500938667
:1002A000C181BA963A867D5798C213878180B70676
:1002B0000080FC37329793C6E6FF14C3C1C7B787E7
:1002C0001E0093870748370700202320F7009397E5
:1002D0001500BE959386018593972500B6977D55A9
:1002E0001387818888C3B307B700238007009387EB
:1002F00041823386B70023000600138615001313CE
:10030000260036932320A30089053303C7003E96B9
:1003100023000600139625002E9723000300B296B3
:10032000BE9588C223000700238005008280814695
:100330003D453306D7003E96230006008506E39A26
:10034000A6FE89BFB7571B009387C7F4ADBFEFF276
:100350003FD55111094502C202C4EF00D01E054429
:100360009307C02048007C8222C423030100EF00D1
:10037000F01D9307E01148007C8222C42303010092
:10038000EF00D01C9307F01148007C82408322C408
:10039000EF00D01B0567B7E700E023A0E71037F4B4
:1003A00000E05C40AD65938545C4F99B5CC0B70730
:1003B000002003A547008D649384940301337D15C9
:1003C00008C8BD472324040051651CC093050002E2
:1003D000130505889533853D1306F00F81451305F8
:1003E0000010C53B81450145413D1384018385458E
:1003F000014504C0513544C093840189138701919C
:100400009387119114239C2393F7F70FE388D7FE6A
:100410001C231023A69726969C2310329386419185
:100420009CA290B21423890693F6F60F14A314230A
:10043000E206E18663D40600230007007D47636679
:10044000F700138781863E9710A313D44700054712
:10045000E36687FABD8B05678A0713074700BA97DB
:100460009C4382871317440093878186BA979833F9
:100470008565938505F022076D8F8C23B7070020D3
:1004800003A50700BA951D39131714003A94935524
:100490004500938701850A046387050E37E5F50556
:1004A000A297130505103EC01139824788C3938770
:1004B0008183A29723A0070091B713174400938765
:1004C0008186BA97B8338565938505F022076D8FCD
:1004D000AC23B707002003A50700BA95C5369317CC
:1004E00014003E94935545000504938701850A0442
:1004F000A9C937E5F505A297130505103EC07D3E55
:10050000824788C3938781833E9423200400FDB5EE
:100510001317440093878186BA97D83385659385EE
:1005200005F022076D8FCC23B707002003A5070035
:10053000BA956936931714003E9493554500090403
:100540006DB73E94FD571CC055BD131744009387EB
:100550008186BA97EC23B707002003A50700FD8921
:100560000A04A93E935545009387C18189CD37E59B
:10057000F505A297130505103EC08936824788C34A
:10058000938741813DB7A2977D5798C385BD1317C7
:10059000440093878186BA97FC33131714003A946A
:1005A0001387818893C6F7FF33068700858A14A2D4
:1005B00093D617009305140093C616003306B700B0
:1005C000858A14A293D627001306240093C616002A
:1005D0003297858A14A393D637001387418293C636
:1005E00016003A94858A14A093D6470093C6160045
:1005F0009583BA95858A93C7170094A13297858B06
:100600001CA3EDBBB707002003A507001317440088
:1006100093878186BA97CC27BC370A04A205BE957A
:1006200093878180636DB5003E94493CAA8537E588
:10063000F505130505105934160508C0C1B3370771
:100640000080A2971347E7FF89B793172400370468
:100650000020130404034DBDA2850545313979BB43
:10066000511122C4B7070002375400409385270078
:100670001305044026C2452D8544631B9500238B3A
:100680000190835784412244924431017300203009
:10069000B705000693850504130504406925631119
:1006A0009506938761919C2393846191E36DF5FC9A
:1006B000938711919423982013050440BA9636C06D
:1006C000B92D824613870189369708A39820894659
:1006D00005071377F70F98A0982093871191E3945B
:1006E000E6FA982309071377F70F98A39823620770
:1006F000618763540700238007002380040061B7EB
:10070000B70700029385070113050440292DE31C58
:1007100095F60357044083570440F98F2310F440A3
:100720009DB73755004013050540C9215165930514
:1007300000021305058809347300203003D70181B6
:10074000130141FCB737014022DC26DA23A0E7C4BD
:10075000938701813ECC85679387B78D3EC0938791
:10076000C1813EC293870183138641819386418272
:1007700078101385C18201433EC40C428247BE9566
:1007800092470CC29A9783A3070063FBB302A24768
:10079000B38575400CC233846700832204009394B0
:1007A00002019397E200A58FC164E58F93D21200F6
:1007B000B3E257002320540093F2120023005500A7
:1007C0001C21B5CF9C221CA39C321CB3BC223CA391
:1007D0001103A14711068D060D070505E31FF3F868
:1007E00013878186938781863EC485679387B78DFB
:1007F0003AC83EC2856737040020138781809387FB
:100800004704130404033AC602CA3ECED247181066
:100810000440BA97238007003EC0B2478C43A247EA
:1008200013975500D437AD47BD8AF11693F6F60FEE
:1008300063E1D702F2478A06BE969442828623007D
:100840000700A30007002301070059B785473ECAE8
:1008500075BF63F7E4022685EFF05F867D473305B9
:10086000A74019A263FEE4002685EFF03F85EDA8BE
:10087000E3E3E4FEB387E4401CC00247FD471CA34A
:10088000A24711048D073EC4B24791073EC6D24726
:10089000D5DF05659386818313860185814713051E
:1008A000B58D9385818819439842832206002A9743
:1008B00098C293D312006376770EB382F50083C299
:1008C000020058103E972300570085079106110635
:1008D000E39C67FC856518100D4601459385450727
:1008E000A54242439306D6FF5C106010B697B3034F
:1008F000D4009C2383C303009E9791CF834783003A
:1009000093F30701639A030ABD8B8A07AE97BE2350
:100910003E954205418185060503E317D6FCC24793
:100920000D060507C1073EC8E31D56FA9307F05FA1
:1009300063E9A7089945EFF06FF8E2478AA362548C
:10094000B7F700E0D84323A20700D2541301C10334
:1009500073002030E3E1E4F013976500E3FCE4F07A
:100960002685EFF0AFF50115824788A39247A69739
:100970001CC039B7E3F3E4F0F9BDE3E7E4EEB38775
:10098000E440FDB7E3FBE4EEC5B5E3EFE4EC139719
:100990006500E3F6E4FE2685EFF04FF21307F0035F
:1009A0007DBD63F6E2003307574098C239B758104F
:1009B0003E972300070011BF1C238607AE979E2396
:1009C00081BF62479307F00F1EA395BFB717024080
:1009D0009843B706FFFC1367170098C3D843758F79
:1009E000D8C39843B706F7FEFD16758F98C3984392
:1009F000B706FCFFFD16758F98C3D44341777D176A
:100A0000F98ED4C3B7069F0094C7B7260240904220
:100A1000719A90C290421366160090C2D443D4C318
:100A2000D443758FD8C3D843B7060001D8C39843C1
:100A3000558F98C3984393166700E3DD06FED843AD
:100A4000B7160240719BD8C3D84313672700D8C399
:100A50002147DC42B18BE39EE7FE828001A001A02A
:100A600001A001A001A001A001A001A001A001A07E
:100A700001A001A001A001A001A001A001A001A06E
:100A800001A001A001A001A001A001A001A001A05E
:100A900001A0970100209381E1D9138101FD170581
:100AA00000001305656197F5FF1F9385A55517F69F
:100AB000FF1F1306265863FAC5008322050023A0F2
:100AC000550011059105E3EAC5FE17F5FF1F130553
:100AD00065569385C1916377B50023200500110504
:100AE000E36DB5FE93020008739002308D4273905F
:100AF000428097F2FFFF9382E25093E232007390BC
:100B00005230EFF0BFEC9702000093828284739022
:100B10001234730020309C45611122C226C013F7A5
:100B2000070113F3F70001C7D8413363E3009221B3
:100B30001377F60F29C783230500014713048002AA
:100B4000930480048546B395E600B376B6006392BD
:100B5000D50293122700BD46B396560093C6F6FF02
:100B6000B3F37600B3125300B3E3720063978706C2
:100B70004CC90507A146E317D7FC232075001307CE
:100B8000F00F6378C70483234500A1461304800255
:100B9000930480040547B312D7003377560063945B
:100BA000E202139726000117BD45B395E50093C5F2
:100BB000F5FFB3F375003317E300B3637700639277
:100BC0008702232A550085064147E395E6FC232248
:100BD00075001244824421018280E39C97F80CC97D
:100BE00049BFE39297FE23285500F1BFB757004055
:100BF00093870740631EF500EFF28FCA85453705DE
:100C00002000E124814537052000C1246FF0EFC9A1
:100C10008280EFF2EFC8111146212A8428002EC0ED
:100C2000C92AC246C204C18093F404FCB7450F0030
:100C3000938505243685C20436C2C180EFF00FC803
:100C4000458D420541814AA01E209246C207C183BC
:100C5000F99BC207C1831EA082479043E167938737
:100C6000076A9315160063E6C7043685EFF00FC5D3
:100C7000AA874205418191466373D5009147139538
:100C8000070141814AAC1E20024793E717001EA0CE
:100C90001E2056233227C207C183D18E93F757BF38
:100CA000D58F1EA016275E27D58F1EA471016FF069
:100CB000CFBF8247EA23B167FD176310F502B295F3
:100CC0003685EFF0AFBF420541819317450199E3A7
:100CD00013651500A1675D8D75B7B387C5008E07D5
:100CE000B385C7003685EFF06FBD4205418191673E
:100CF0005D8DE1BF1E2189C593E717001EA182808B
:100D0000C207C183F99BC207C183CDBF5E2101C663
:100D1000DD8D4EA1828093C5F5FFFD8DDDBF0A29D3
:100D20001375F50F82805E215A29C2076D8FC1832A
:100D300009CB13D505017D8D137505703335A000E2
:100D400082800145828023ACA1908280938781912B
:100D50009443182181E63C21920721A8944305463B
:100D6000639FC6023C21103192076314D60093E7BB
:100D700007F8B7E600E093F7F70FBA962380F6403E
:100D80008546935757003397E6005441A5C2938791
:100D900007048A07B7E600E0B69798C382808C43C1
:100DA00089466391D50214313C216365D6008A06D9
:100DB000B6975DB79386E6038A06B69793F7F70F63
:100DC000920775B790438D46631CD60014313C21C1
:100DD0006364D6008606E9BF9386C6078606F1BF20
:100DE00094439147E39EF6F81C31BDB793870706FD
:100DF0004DB7EFF2EFAA371702405C4391462A84C1
:100E0000B18B6385D700A146638DD706B7376E01D6
:100E1000938707601CC0B7160240DC42918313F72A
:100E2000F700B70700209387C701BA978C23DC42ED
:100E3000184093F5F50F93F707083355B70081E78E
:100E40003A85EFF0AFA748C008C448C4B7170240BE
:100E5000DC43AD83FD8B13D737008A07F18BD98F25
:100E600093F637010D476373D700D117370700207A
:100E700013078700BA978C23EFF04FA408C86FF0D0
:100E8000CFA25C43B777DC02938707C061B799C5EF
:100E9000371702401C4F5D8D08CF8280B717024084
:100EA000984F1345F5FF798D88CF828099C5371704
:100EB00002405C4F5D8D48CF8280B7170240D84F0B
:100EC0001345F5FF798DC8CF828099C53717024049
:100ED0001C4B5D8D08CB8280B7170240984B1345A1
:100EE000F5FF798D88CB82801E21373701401307AB
:100EF00007C0C207C1836306E500370700406316D9
:100F0000E500BA2193F7F7F8D98FFA2193F7F7CFD5
:100F1000C207C183D98F1EA1DE215EB59E211EB5F9
:100F2000B7370140938707C06314F5009C251EB9AD
:100F300085475EA982801A31FD77FD17F98F1EB1B2
:100F4000035305025A215E2DE5769386F6CFFD8E7A
:100F50009E2113160701BA21A207DD8EF977FD172E
:100F6000B3F7670003D38500C20641823367670089
:100F70003207D98F37370140C207130707C0C18234
:100F8000C183631BE50071777D17718FD2251A0627
:100F9000518F131607014182FA2152A156AD38C173
:100FA0001EB182801E2189C593E717001EA1828091
:100FB000C207C183F99BC207C183CDBF83574504D4
:100FC00091C52167D98F2312F5048280C607C58396
:100FD000DDBF1E2189C593E707081EA18280C207D5
:100FE000C18393F7F7F7C207C183C5BF5A2DFD77B9
:100FF0009387F77FF98FA205CD8FC207C1835EADBE
:10100000828000006404000064040000BA04000050
:10101000BA04000010050000100500004A05000099
:101020008E050000FC030000FC030000FC03000030
:1010300004060000040600004A060000FC0300004D
:1010400058060000640800006408000064080000FE
:1010500064080000700800005208000054090000F5
:10106000740900007A090000840900008A09000060
:1010700064080000000000000100010002000200FE
:1010800003000400050006000700080009000B002B
:101090000D001000130017001B00200026002D007B
:1010A000360040004C005A006B0080009800B400ED
:0410B000D600FF0067
:1010B4004C4F1B00006CDC020204060804080C10F0
:1010C40008101820102030402040608001020304E2
:1010D40005060708010203040506070800000000CE
:00000001FF
